:020000040000FA
:10000000C8A7FF1F95020000CD020000CF0200002C
:10001000D1020000D3020000D50200000000000061
:10002000000000000000000000000000D7020000F7
:10003000D902000000000000DB020000713F000058
:10004000211E0000351E0000491E00005D1E00003C
:10005000711E0000851E0000991E0000AD1E0000EC
:10006000C11E0000D51E0000E91E0000FD1E00009C
:10007000111F0000251F0000391F00004D1F000048
:10008000611F0000751F0000891F00009D1F0000F8
:10009000B11F0000C51F0000D91F0000ED1F0000A8
:1000A0000120000015200000292000003D20000054
:1000B0005120000065200000792000008D20000004
:1000C000A1200000B5200000C9200000DD200000B4
:1000D000F120000005210000192100002D21000061
:1000E0004121000055210000692100007D21000010
:1000F00091210000A5210000B9210000CD210000C0
:10010000E1210000F5210000092200001D2200006D
:100110003122000045220000592200006D2200001B
:100120008122000095220000A9220000BD220000CB
:10013000D1220000E5220000F92200000D2300007A
:100140002123000035230000492300005D23000027
:10015000712300008523000099230000AD230000D7
:10016000C1230000D5230000E9230000FD23000087
:100170001124000025240000392400004D24000033
:100180006124000075240000892400009D240000E3
:10019000B1240000C5240000D9240000ED24000093
:1001A0000125000015250000292500003D2500003F
:1001B0005125000065250000792500008D250000EF
:1001C000A1250000B5250000C9250000DD2500009F
:1001D000F125000005260000192600002D2600004C
:1001E0004126000055260000692600007D260000FB
:1001F00091260000A5260000B9260000CD260000AB
:10020000E1260000F5260000092700001D27000058
:100210003127000045270000592700006D27000006
:100220008127000095270000A9270000BD270000B6
:10023000D1270000E5270000F92700000D28000065
:10024000DF020000DF020000DF020000DF0200002A
:10025000DF020000DF020000DF020000DF0200001A
:10026000DF020000DF020000DF020000DF0200000A
:10027000DF020000DF020000DF020000DF020000FA
:10028000DFF80CD000F0C2FB0048004755630000C7
:10029000C8A7FF1F12484FF01F01016011484FF01F
:1002A0007701016010484FF0770101600F484FF46B
:1002B000885101600B484FF0760101600A484FF009
:1002C000760101600A4880470A480047FEE7FEE7DA
:1002D000FEE7FEE7FEE7FEE7FEE7FEE7FEE7FEE7F6
:1002E00010080540040805400C08054000080540BA
:1002F00075400000810200002DE9F05F05460020F6
:1003000092469B4688460646814640241BE0284686
:1003100041464746224600F08BF953465A46C01ADA
:10032000914110D311461846224600F072F92D1A59
:1003300067EB01084F4622460120002100F069F9D1
:1003400017EB00094E41201EA4F10104DFDC4846F2
:1003500031462A464346BDE8F09F40EA01039B0729
:1003600003D009E008C9121F08C0042AFAD203E02A
:1003700011F8013B00F8013B521EF9D27047D2B28E
:1003800001E000F8012B491EFBD270470022F6E77E
:1003900010B513460A4604461946FFF7F0FF2046FB
:1003A00010BD421C10F8011B0029FBD1801A7047B8
:1003B00030B505460020034600E05B1C934205D2A1
:1003C000EC5CC85C201A01D1002CF6D130BD0EB512
:1003D00040F2334102910021CDE900110A460B465B
:1003E00000F07CF903B000BD0EB540F2334202923A
:1003F0000022CDE90022134600F070F903B000BDE1
:10040000BFFFDFFFFFFEFFFFFFFFFFFFFFFFFFFF5D
:10041000FFFFFFFFFFFFFFFFFFFFFFFFFFFFFFFFEC
:10042000F0B480EA0102D40F4200B2EB410F02D2D5
:100430000246084611464A0042D0C30DDDB2C1F360
:10044000C752AD1A202D35DAC1F3160141F400026E
:1004500004B15242C5F1200602FA06F12A411044C5
:10046000B3EBD05F23D0C4B1012DA0EBC35009DCA6
:10047000F0BC4FF0004202EAC352DBB200F50000CC
:1004800000F0EFB8400000F1807000EBC350A0F125
:10049000807040EAD170490009E0490841EAC07122
:1004A000A0EBC35000F50000400800EBC350F0BCC7
:1004B00000F0CEB86142012202EB4101001BF6E7D9
:1004C000F0BC704781F00041AAE780F00040A7E748
:1004D0002DE9F04D81EA030404F0004B21F00045C2
:1004E00014464FF0000A23F0004150EA050220D0E4
:1004F00054EA01021DD0C5F30A570246C5F313039F
:10050000C1F31300C1F30A5640F4801543F480137D
:10051000A7EB0608101BD64608F2FD3873EB050062
:1005200002D308F1010801E092185B41B8F1000F15
:1005300003DA00200146BDE8F08D00204FF4801161
:10054000064684460EE0171B73EB050705D3121B06
:1005500063EB050306434CEA010C49084FEA3000FF
:1005600092185B4150EA0107EDD152EA030012D024
:1005700082EA040083EA0501084305D0101BAB4161
:1005800006D20122002306E000224FF0004302E0E1
:100590006FF0010253101AEB06004CEB085110EB00
:1005A0000A0041EB0B01BDE8F04D00F088B801F006
:1005B000004330B421F0004150EA010206D00A0D98
:1005C000A2F56072C1F31301002A02DC30BC0020E6
:1005D0007047440F44EAC104C100E01830BC00EB8E
:1005E000C25000F035B830B50B460146002020223D
:1005F000012409E021FA02F59D4205D303FA02F530
:10060000491B04FA02F52844151EA2F10102F1DC8F
:1006100030BD202A04DB203A00FA02F100207047A6
:100620009140C2F1200320FA03F319439040704730
:10063000202A04DB203A21FA02F00021704721FA37
:1006400002F3D040C2F1200291400843194670479E
:100650000029A8BF7047401C490008BF20F00100D6
:10066000704710B4B0FA80FC00FA0CF050EA0104B4
:1006700004BF10BC704749B1CCF1200421FA04F446
:1006800011FA0CF118BF012121430843A3EB0C011F
:10069000CB1D4FEA00614FEA102042BF002010BC82
:1006A000704700EBC35010440029A4BF10BC704732
:1006B000401C490008BF20F0010010BC704710B575
:1006C000141E73F1000408DA401C41F10001921875
:1006D0005B411A4301D120F0010010BD2DE9F04D1E
:1006E00092469B4611B1B1FA81F202E0B0FA80F273
:1006F00020329046FFF78DFF04460F4640EA0A007D
:1007000041EA0B0153465A46084313D0114653EAB7
:10071000010019D0C8F140025046FFF789FF054695
:100720000E46504659464246FFF773FF084305D030
:10073000012004E020463946BDE8F08D0020054345
:1007400046EAE0762C4337430A986305E40AA0EBB7
:1007500008000022FD0A44EA47540A3002D500206E
:100760000146E9E7010510196941DDE9084500196D
:100770006941BDE8F04DA2E72DE9FE4F804681EAD0
:100780000300C00F0C46009021F0004123F000450B
:10079000B8EB0200A94105D24046214690461C46CE
:1007A0000B46024623F00040104347D0270DC7F305
:1007B0000A00C3F30A510290401A019040286BDAF4
:1007C000C3F3130040F4801B0098924620B100232D
:1007D000D2EB030A63EB0B0B01985946C0F14002C0
:1007E0005046FFF716FF06460D4650465946019AF9
:1007F00000F01EF910EB08006141002487EA115255
:1008000084EAE7731A4340D0009A62B3019A012A3E
:100810004FEA075215DC001B61EB02014FF000426A
:1008200002EA0752CDE90042001C41F58011324630
:100830002B46FFF753FF03B0BDE8F08F404621463B
:10084000F9E7001B61EB0201001C41F58013001861
:100850005B412018A2F5001747EB030140EAD57071
:10086000B6196D4111E06D084FEA360645EAC075CC
:100870004FEA0752001B61EB0201001C41F5801199
:1008800049084FEA30000019514132462B4603B067
:10089000BDE8F04FFFF713BF00980122400000238E
:1008A000D0EB020263EBE073009821464FEAE0745C
:1008B000B8EB000061EB0401E9E783F000435BE77C
:1008C00081F0004158E72DE9FE4F81EA030404F06E
:1008D000004421F0004100944FF0000B23F000434E
:1008E00050EA01045ED052EA03045BD0C3F30A5419
:1008F000C1F30A552C44A4F2F3340194A0FB025432
:10090000C1F3130141F48011C3F3130343F48013C3
:1009100001FB024400FB034E840A970A44EA815417
:1009200047EA8357A4FB076802958D0A05FB0785F4
:100930004FEA932C04FB0C542705029D4FEA0658FE
:1009400047EA1637B5EB08056EEB070C870E920EDB
:1009500047EA811742EA8312A7FB0201B6EB0B01BB
:1009600064EB00042B0D43EA0C335E1844EB1C507F
:10097000DA465146E7FB0201C5F313044FEA0B3395
:1009800043EA14534FEA0432019C43EA0603A4F1FC
:100990000C040294009CCDE900B4FFF79FFE03B065
:1009A000BDE8F08F00200146F9E7C1F30A52C1F318
:1009B000130140F2FF3341F480119A4202DA002021
:1009C0000146704740F233439A42A2F2334202DCBE
:1009D0005242FFF72DBEFFF71CBE000030B5041ECB
:1009E00071F1000404DB4FF00044404264EB01016C
:1009F000141E73F1000405DB1C464FF00043524205
:100A000063EB0403994208BF904230BD064C074D8A
:100A100006E0E06840F0010394E8070098471034CE
:100A2000AC42F6D3FFF730FCE4FB070004FC070000
:100A3000202A06DBCB17203A41FA02F043EAE073A2
:100A400006E041FA02F3D040C2F12002914008438F
:100A50001946704730B58C1810F8012B12F00F03AF
:100A600001D110F8013B120906D110F8012B03E067
:100A700010F8015B01F8015B5B1EF9D101E001F8A0
:100A8000013B521EFBD1A142E6D3002030BD2DE92F
:100A9000F04107461C4615460E462A2003F063FD2A
:100AA000002002F08FFE384602F08CFE002002F09B
:100AB00089FE284602F086FE2B2003F054FD00201C
:100AC00002F080FE304602F07DFE002002F07AFE49
:100AD000204602F077FEBDE8F0412C2003F043BD34
:100AE000084810B5016841F400610160022101204D
:100AF00000F0D6FF0028F9D0BDE81040022000F039
:100B00001BBE00003482FF1F0748017B002909D16A
:100B10000121064A017041701268426082600173CF
:100B200000F03CB8704700004C82FF1F0C82FF1F92
:100B300070B5154C207800280DD0144D6168002642
:100B40002868401A41F28831884205D300F020F825
:100B500026706670267370BD0B480C4A61788068F9
:100B60001268101A29B13228F5D300F011F8667016
:100B700007E040F2B6318842EDD300F00FF80120D3
:100B800060702868A06070BD4C82FF1F0C82FF1F40
:100B9000014804F007B9000000600140014804F07A
:100BA000B7B80000006001402DE9F0474FF0E06564
:100BB0002E112F1404464FF4E0484FF4E029A842C8
:100BC00010D0B4420ED0072C0CD0702C0AD0BC42EE
:100BD00008D0444506D04C4504D040F2BA511AA082
:100BE00000F00EFD2749284844451FD00CDC072C97
:100BF00024D0702C12D0BC4224D1096AC1F3022146
:100C00000068C840BDE8F0874C450BD0B44211D015
:100C1000AC4217D1096AC1F30261F1E7096AC1F375
:100C20000211EDE7096AC1F30241E9E7096AC1F37C
:100C30000231E5E7096AC1F30251E1E7096A01F00F
:100C40000701DDE70068DDE72E2E2F2E2E2F2E2E3A
:100C50002F2E2E2F2E2E2F2E2E2F64726976657238
:100C6000732F686333325F6C6C5F64726976657290
:100C70002F7372632F686333325F6C6C5F636C6BCE
:100C80002E630000004005400080FF1F10B50400E7
:100C900002D034F0690004D040F28B5104A000F07F
:100CA000AFFC124890F83C00204000D0012010BD5D
:100CB0002E2E2F2E2E2F2E2E2F2E2E2F2E2E2F2E4F
:100CC0002E2F647269766572732F686333325F6C9E
:100CD0006C5F6472697665722F7372632F68633319
:100CE000325F6C6C5F636C6B2E63000000400540EC
:100CF00070B506004FF0000506D0012E04D040F27A
:100D0000163116A000F07CFC234CB4F8FE03C0079B
:100D100004D140F2173111A000F072FC46B100205E
:100D200084F836004FF48051012000F0A5FA11E05C
:100D300094F8260041076FF005000BD0D4F800119D
:100D40000A064FF0010102D594F82A2012B184F866
:100D5000361000E00546284670BD00002E2E2F2ECE
:100D60002E2F2E2E2F2E2E2F2E2E2F2E2E2F647224
:100D700069766572732F686333325F6C6C5F64727F
:100D8000697665722F7372632F686333325F6C6CA0
:100D90005F636C6B2E6300000040054070B504007B
:100DA0004FF0000506D0012C04D040F2D92110A04C
:100DB00000F026FC1D4EB6F8FE03C00704D140F239
:100DC000DA210BA000F01CFC19480CB1002106E050
:100DD00096F8261001F00701022902D001210170C6
:100DE00001E06FF00505A02000F02CFC284670BD46
:100DF0002E2E2F2E2E2F2E2E2F2E2E2F2E2E2F2E0E
:100E00002E2F647269766572732F686333325F6C5C
:100E10006C5F6472697665722F7372632F686333D7
:100E2000325F6C6C5F636C6B2E63000000400540AA
:100E30002744054070B50C00054606D0012C04D0AF
:100E400040F27B510FA000F0DBFB1D48B0F8FE0321
:100E5000C00704D140F27C510AA000F0D1FB35B1AB
:100E6000012D04D040F27D5106A000F0C9FB1448CA
:100E70003D302844E101C1F3C012017862F3DF1173
:100E8000017070BD2E2E2F2E2E2F2E2E2F2E2E2F98
:100E90002E2E2F2E2E2F647269766572732F686343
:100EA00033325F6C6C5F6472697665722F73726344
:100EB0002F686333325F6C6C5F636C6B2E63000072
:100EC0000040054070B515460C00064616D0012CB2
:100ED00014D0022C12D0032C10D0042C0ED0062CCF
:100EE0000CD0072C0AD0082C08D0092C06D00B2CCB
:100EF00004D040F266511AA000F082FB95B1102D8B
:100F000010D0202D0ED0302D0CD0402D0AD0502DD9
:100F100008D0602D06D0702D04D040F2675110A08B
:100F200000F06EFB36B1012E04D04FF4AD610CA081
:100F300000F066FB1948B0F8FE03C00704D140F288
:100F40006A5107A000F05CFB14483D303044017842
:100F50002C4301F0800104F07F021143017070BD49
:100F60002E2E2F2E2E2F2E2E2F2E2E2F2E2E2F2E9C
:100F70002E2F647269766572732F686333325F6CEB
:100F80006C5F6472697665722F7372632F68633366
:100F9000325F6C6C5F636C6B2E6300000040054039
:100FA00070B506004FF0000406D0012E04D040F2C8
:100FB000E54119A000F024FB264DB5F8FE03C0075B
:100FC00004D140F2E64114A000F01AFB46B1D5F876
:100FD00000014FF48056000631460ED408200DE083
:100FE00095F8260000F00700052803D0012085F8B9
:100FF0002A000EE06FF005040BE0012000F03CF940
:10100000040006D185F82A003146202000F034F98A
:101010000446204670BD00002E2E2F2E2E2F2E2E81
:101020002F2E2E2F2E2E2F2E2E2F64726976657264
:10103000732F686333325F6C6C5F647269766572BC
:101040002F7372632F686333325F6C6C5F636C6BFA
:101050002E630000004005402DE9F041040026D039
:10106000207900F01F00172804D940F2B94158A098
:1010700000F0C6FA6068C0F308201338B0F5E67FC8
:1010800004D940F2BA4152A000F0BAFA60684FF0B9
:10109000FF3101EB10700E2804D940F2BB414CA087
:1010A00000F0AEFA6168080605D4584A05E06FF012
:1010B0000200BDE8F0815648026801F01F00401CA4
:1010C000B2FBF0F0C1F308256D1C524945430844BA
:1010D0005149884204D94FF498613DA000F090FA3C
:1010E0004E484E4928444942884204D940F2C14101
:1010F00037A000F085FA6068012101EB1070B5FBA4
:10110000F0F0474E474F3044B84204D940F2C24154
:101110002FA000F075FA6068C0F30360401E0E282F
:1011200004D940F2C3412AA000F06AFA6068C0F313
:101130000350401E0E2804D940F2C44124A000F000
:101140005FFA6068C0F30350401CB5FBF0F0304418
:10115000B84204D940F2C5411DA000F051FA6068C0
:10116000C0F30360401CB5FBF0F03044B84204D932
:1011700040F2C64116A000F043FA2078012805D0BD
:1011800020B14FF4996112A000F03AFA264DB5F85B
:10119000FE03C00704D140F2C9410DA000F030FAAF
:1011A000D5F80001217920F08000C1F3C01140EA98
:1011B000C110C5F800016068C5F80001207820B1B1
:1011C0000020BDE8F041FFF7EBBE0120F9E7000089
:1011D0002E2E2F2E2E2F2E2E2F2E2E2F2E2E2F2E2A
:1011E0002E2F647269766572732F686333325F6C79
:1011F0006C5F6472697665722F7372632F686333F4
:10120000325F6C6C5F636C6B2E63000000127A00BF
:101210000480FF1FC0BDF0FF00366E0100E4B1F195
:10122000401E1BFF40E0060B00400540002290B12D
:101230000021132363F3102101F1805121F070612B
:1012400001F1807121F4700101F5801141600121EB
:101250000170104670476FF00202FAE710B502F015
:10126000DFFBBDE8104002F0BFBE10B502F0ECFCA1
:10127000BDE8104002F0B8BEF8B5064600200D46A5
:101280006FF00704009007E03046FFF7FFFC0128ED
:1012900006D00098401C0090A842F5D92046F8BD21
:1012A0000024FBE770B506004FF0000506D0012EC4
:1012B00004D04FF4677117A000F0A2F9244CB4F8E1
:1012C000FE03C00704D140F29D3112A000F098F94E
:1012D00046B1002084F832004FF480510820FFF717
:1012E000CBFF13E094F8260000F007016FF0050033
:1012F00003290BD0D4F800110A064FF0010102D4E3
:1013000094F82A2012B184F8321000E005462846ED
:1013100070BD00002E2E2F2E2E2F2E2E2F2E2E2F74
:101320002E2E2F2E2E2F647269766572732F6863AE
:1013300033325F6C6C5F6472697665722F737263AF
:101340002F686333325F6C6C5F636C6B2E630000DD
:101350000040054070B5040045D02078012805D034
:1013600020B14FF45F712DA000F04AF9607850B1C0
:10137000102808D0202806D0302804D040F27D3133
:1013800026A000F03DF9A07830B1402804D040F20A
:101390007E3122A000F034F9E078802805D020B119
:1013A00040F27F311DA000F02BF92079012814D0E4
:1013B000022812D0032810D004280ED005280CD003
:1013C00006280AD0072808D0082806D0092804D003
:1013D0004FF4607111A000F013F91F4DB5F8FE0332
:1013E000C00708D102E06FF0020070BD40F2813109
:1013F0000AA000F005F9207985F8A200E07861786C
:101400000843A178084315490870207820B10020CE
:10141000BDE87040FFF746BF0120F9E72E2E2F2EC2
:101420002E2F2E2E2F2E2E2F2E2E2F2E2E2F64725D
:1014300069766572732F686333325F6C6C5F6472B8
:10144000697665722F7372632F686333325F6C6CD9
:101450005F636C6B2E630000004005401044054044
:10146000002150B10122027000228270427080225D
:10147000C27005220271084670476FF00201FAE758
:101480002DE9F05F0D464A494FF0FF3788420DD0F5
:10149000484988420AD04849884207D0474988428B
:1014A00004D040F2A51146A000F0AAF8D5E9004604
:1014B000002C7AD0002E78D04FEA8608B4FBF8F0E2
:1014C000401EFF2871D8B4FBF8F208FB124200213D
:1014D000A860CAB389460A46401C41F10001890050
:1014E00041EA90718000A0FB063C01FB06C100FBB5
:1014F00002100102180241EA136B520882464FEAB9
:101500003403C0184BEB020122460023FEF7F4FE21
:1015100080387F281CD880268719E860A7FB040C38
:1015200049F1000606FB04C407FB09440646594678
:101530005046FEF759FF0746884630462146FEF7DB
:1015400053FF3A46434626E0FFE7296100272CE097
:1015500004EB84004100B1FBF8F00A21401DB0FB10
:10156000F1F0401EFF2820D8A860401C49F100027D
:10157000920042EA90728300A3FB060702FB067208
:1015800003FB0921FEF730FF06460F462046FEF713
:101590001EFF32463B46FEF79BFFFFF708F84FF071
:1015A0007E51FEF78FFF2861D0E73846BDE8F09FF7
:1015B00000D0014000D4014000100240001402405D
:1015C0002E2E2F2E2E2F2E2E2F2E2E2F2E2E2F2E36
:1015D0002E2F647269766572732F686333325F6C85
:1015E0006C5F6472697665722F7372632F68633300
:1015F000325F6C6C5F75736172742E630000000063
:10160000FEE7000008B50D49096AC1F302630C4901
:101610000968D94041F270731944491EB1FBF3F2D5
:1016200006E0009200BF00994B1E00930029FAD1FA
:10163000011EA0F10100F4D108BD000000400540EA
:101640000080FF1F08B50C49096AC1F302630B490A
:101650000968D9400A4B1944491EB1FBF3F206E070
:10166000009200BF00994B1E00930029FAD1011E81
:10167000A0F10100F4D108BD004005400080FF1F2B
:10168000808D5B0070B5054619480024006801286C
:1016900004D040F24F1117A0FFF7B2FFF02D04D98C
:1016A0004FF4A87113A0FFF7ABFF11490831086888
:1016B00005F0F00220F0F000104308601D481C4ABD
:1016C00044F6206300680CE0166AC6F3026620FA4E
:1016D00006F6B6FBF3F6641CA64202D26FF00700D2
:1016E00070BD0E6806F0F006AE42EDD1002070BD70
:1016F000000401402E2E2F2E2E2F2E2E2F2E2E2F79
:101700002E2E2F2E2E2F647269766572732F6863CA
:1017100033325F6C6C5F6472697665722F737263CB
:101720002F686333325F6C6C5F65666D2E630000FB
:10173000004005400080FF1F10B5040001D0200CC0
:1017400004D040F20F210348FFF75AFF0248846596
:1017500010BD0000A0FB07000010054070B50E464C
:10176000040002D00A48044203D0842109A0FFF7F4
:1017700047FF174D2EB1012E06D0852105A0FFF79A
:101780003FFF6868204301E06868A043686070BD5F
:101790008602F0F02E2E2F2E2E2F2E2E2F2E2E2FB5
:1017A0002E2E2F2E2E2F647269766572732F68632A
:1017B00033325F6C6C5F6472697665722F7372632B
:1017C0002F686333325F6C6C5F6663672E63000063
:1017D0000080044070B50E46040002D00A4804425E
:1017E00003D0962109A0FFF70BFF174D2EB1012E54
:1017F00006D0972105A0FFF703FFA868204301E06A
:10180000A868A043A86070BD0078F8FF2E2E2F2E88
:101810002E2F2E2E2F2E2E2F2E2E2F2E2E2F647269
:1018200069766572732F686333325F6C6C5F6472C4
:10183000697665722F7372632F686333325F6C6CE5
:101840005F6663672E6300000080044070B5044645
:101850001C4816460D460088C00704D140F281217D
:1018600019A0FFF7CDFE74B1012C0CD0022C0AD0C8
:10187000032C08D0042C06D0052C04D040F2822181
:1018800011A0FFF7BDFE25B940F283210EA0FFF79E
:10189000B7FE0C4B0020A2011B1DE90708D002EB8C
:1018A00080011944012E0C8809D0C4F30E040C8069
:1018B0006D0803D0401CC0B21028EED370BD44F4B4
:1018C0000044F4E7FC3B05402E2E2F2E2E2F2E2E0B
:1018D0002F2E2E2F2E2E2F2E2E2F647269766572AC
:1018E000732F686333325F6C6C5F64726976657204
:1018F0002F7372632F686333325F6C6C5F6770693C
:101900006F2E63002DE9F04114000E4605464FF09E
:10191000000704D052480088C00708D102E06FF0E9
:1019200002079AE04FF480714EA0FFF769FE75B18F
:10193000012D0CD0022D0AD0032D08D0042D06D085
:10194000052D04D040F2011146A0FFF759FE26B93B
:101950004FF4817143A0FFF753FE208830B1012876
:1019600004D040F203113FA0FFF74AFE608830B177
:10197000022804D04FF482713AA0FFF741FEA088FC
:1019800030B1042804D040F2051136A0FFF738FE2C
:10199000E08840B1102806D0202804D04FF483718D
:1019A00030A0FFF72DFE208938B1B0F5804F04D06C
:1019B00040F207112BA0FFF723FE608930B14028C9
:1019C00004D04FF4847127A0FFF71AFEA08938B124
:1019D000B0F5007F04D040F2091122A0FFF710FEFD
:1019E000E08938B1B0F5805F04D04FF485711DA057
:1019F000FFF706FE208A38B1B0F5004F04D040F260
:101A00000B1118A0FFF7FCFD0021F0071FD0208864
:101A10006288E3881043A2884DF2772C1A43104362
:101A200062890F4B1043A2891043E2891043228937
:101A30001043228A0243A80100EB81001B1D1844B9
:101A4000038802EA0C0223EA0C031343038076089E
:101A500003D0491CC9B21029D7D33846BDE8F0815C
:101A6000FC3B05402E2E2F2E2E2F2E2E2F2E2E2FCE
:101A70002E2E2F2E2E2F647269766572732F686357
:101A800033325F6C6C5F6472697665722F73726358
:101A90002F686333325F6C6C5F6770696F2E630011
:101AA00070B50D4604000ED0012C0CD0022C0AD0CB
:101AB000032C08D0042C06D0052C04D04FF4FF7161
:101AC00008A0FFF79DFD25B940F2FF1105A0FFF723
:101AD00097FD134901EB0410B0F80008284000D02E
:101AE000012070BD2E2E2F2E2E2F2E2E2F2E2E2F7C
:101AF0002E2E2F2E2E2F647269766572732F6863D7
:101B000033325F6C6C5F6472697665722F737263D7
:101B10002F686333325F6C6C5F6770696F2E630090
:101B20000030054070B50D4604000ED0012C0CD0DD
:101B3000022C0AD0032C08D0042C06D0052C04D08B
:101B400040F24A2107A0FFF75BFD25B940F24B2187
:101B500004A0FFF755FD124800EB0410018829434B
:101B6000018070BD2E2E2F2E2E2F2E2E2F2E2E2F9B
:101B70002E2E2F2E2E2F647269766572732F686356
:101B800033325F6C6C5F6472697665722F73726357
:101B90002F686333325F6C6C5F6770696F2E630010
:101BA0000A38054070B516460D4604000ED0012CCB
:101BB0000CD0022C0AD0032C08D0042C06D0052C03
:101BC00004D04FF4BE7118A0FFF71AFD25B940F2FA
:101BD0007D1115A0FFF714FD0F2E08D9A6F12000E6
:101BE0001B2804D94FF4BF710FA0FFF709FD1D4852
:101BF0000088C00704D140F27F110BA0FFF700FD61
:101C0000184B0020A2019B1DE90706D002EB8001C2
:101C100019440C8866F305040C806D0803D0401C41
:101C2000C0B21028F0D370BD2E2E2F2E2E2F2E2EA8
:101C30002F2E2E2F2E2E2F2E2E2F64726976657248
:101C4000732F686333325F6C6C5F647269766572A0
:101C50002F7372632F686333325F6C6C5F677069D8
:101C60006F2E6300FC3B054070B50D4604000ED09E
:101C7000012C0CD0022C0AD0032C08D0042C06D046
:101C8000052C04D04FF40E7107A0FFF7B9FC25B95D
:101C900040F2392104A0FFF7B3FC124800EB041016
:101CA00001882943018070BD2E2E2F2E2E2F2E2E1F
:101CB0002F2E2E2F2E2E2F2E2E2F647269766572C8
:101CC000732F686333325F6C6C5F64726976657220
:101CD0002F7372632F686333325F6C6C5F67706958
:101CE0006F2E630008380540002258B100210180A2
:101CF0004180C1800182018141818181C1818180D6
:101D0000104670476FF00202FAE703207047032085
:101D10007047172070471E2070471420704701201D
:101D2000704770B50D4604002ED000F02FF8B4F9BE
:101D300002000122002809DB00F01F0102FA01F174
:101D40004009800000F1E020C0F88012B4F90200E0
:101D50002907090E002804DB00F1E02080F80014B8
:101D600005E000F00F0000F1E02080F8141DB4F948
:101D70000200002808DB00F01F018A4040098000B3
:101D800000F1E020C0F8002170BD00002DE9F04115
:101D900004004FF000056FF0020619D02088B0F55E
:101DA000007F03D3CD211A48FFF72AFC228850096F
:101DB00000EB4001202000EB4103B4F90200834214
:101DC00004D8252303EB4101814203D2202801D30B
:101DD00035461AE00F4901EB80010E680E4F0F4B9C
:101DE000B7EBC65F06D10A60B4F90210606843F829
:101DF00021000AE00968C1F308018A4203D1616841
:101E000043F8201001E06FF001052846BDE8F0819D
:101E1000A0FB07005C100540000080FF7082FF1FE0
:101E2000034810B500688047BFF34F8F10BD000016
:101E30007082FF1F034810B540688047BFF34F8F83
:101E400010BD00007082FF1F034810B580688047F6
:101E5000BFF34F8F10BD00007082FF1F034810B505
:101E6000C0688047BFF34F8F10BD00007082FF1F16
:101E7000034810B500698047BFF34F8F10BD0000C5
:101E80007082FF1F034810B540698047BFF34F8F32
:101E900010BD00007082FF1F034810B580698047A5
:101EA000BFF34F8F10BD00007082FF1F034810B5B5
:101EB000C0698047BFF34F8F10BD00007082FF1FC5
:101EC000034810B5006A8047BFF34F8F10BD000074
:101ED0007082FF1F034810B5406A8047BFF34F8FE1
:101EE00010BD00007082FF1F034810B5806A804754
:101EF000BFF34F8F10BD00007082FF1F034810B565
:101F0000C06A8047BFF34F8F10BD00007082FF1F73
:101F1000034810B5006B8047BFF34F8F10BD000022
:101F20007082FF1F034810B5406B8047BFF34F8F8F
:101F300010BD00007082FF1F034810B5806B804702
:101F4000BFF34F8F10BD00007082FF1F034810B514
:101F5000C06B8047BFF34F8F10BD00007082FF1F22
:101F6000034810B5006C8047BFF34F8F10BD0000D1
:101F70007082FF1F034810B5406C8047BFF34F8F3E
:101F800010BD00007082FF1F034810B5806C8047B1
:101F9000BFF34F8F10BD00007082FF1F034810B5C4
:101FA000C06C8047BFF34F8F10BD00007082FF1FD1
:101FB000034810B5006D8047BFF34F8F10BD000080
:101FC0007082FF1F034810B5406D8047BFF34F8FED
:101FD00010BD00007082FF1F034810B5806D804760
:101FE000BFF34F8F10BD00007082FF1F034810B574
:101FF000C06D8047BFF34F8F10BD00007082FF1F80
:10200000034810B5006E8047BFF34F8F10BD00002E
:102010007082FF1F034810B5406E8047BFF34F8F9B
:1020200010BD00007082FF1F034810B5806E80470E
:10203000BFF34F8F10BD00007082FF1F034810B523
:10204000C06E8047BFF34F8F10BD00007082FF1F2E
:10205000034810B5006F8047BFF34F8F10BD0000DD
:102060007082FF1F034810B5406F8047BFF34F8F4A
:1020700010BD00007082FF1F034810B5806F8047BD
:10208000BFF34F8F10BD00007082FF1F034810B5D3
:10209000C06F8047BFF34F8F10BD00007082FF1FDD
:1020A000034810B5D0F880008047BFF34F8F10BDB4
:1020B0007082FF1F034810B5D0F884008047BFF33B
:1020C0004F8F10BD7082FF1F034810B5D0F88800F5
:1020D0008047BFF34F8F10BD7082FF1F034810B5BC
:1020E000D0F88C008047BFF34F8F10BD7082FF1F68
:1020F000034810B5D0F890008047BFF34F8F10BD54
:102100007082FF1F034810B5D0F894008047BFF3DA
:102110004F8F10BD7082FF1F034810B5D0F8980094
:102120008047BFF34F8F10BD7082FF1F034810B56B
:10213000D0F89C008047BFF34F8F10BD7082FF1F07
:10214000034810B5D0F8A0008047BFF34F8F10BDF3
:102150007082FF1F034810B5D0F8A4008047BFF37A
:102160004F8F10BD7082FF1F034810B5D0F8A80034
:102170008047BFF34F8F10BD7082FF1F034810B51B
:10218000D0F8AC008047BFF34F8F10BD7082FF1FA7
:10219000034810B5D0F8B0008047BFF34F8F10BD93
:1021A0007082FF1F034810B5D0F8B4008047BFF31A
:1021B0004F8F10BD7082FF1F034810B5D0F8B800D4
:1021C0008047BFF34F8F10BD7082FF1F034810B5CB
:1021D000D0F8BC008047BFF34F8F10BD7082FF1F47
:1021E000034810B5D0F8C0008047BFF34F8F10BD33
:1021F0007082FF1F034810B5D0F8C4008047BFF3BA
:102200004F8F10BD7082FF1F034810B5D0F8C80073
:102210008047BFF34F8F10BD7082FF1F034810B57A
:10222000D0F8CC008047BFF34F8F10BD7082FF1FE6
:10223000034810B5D0F8D0008047BFF34F8F10BDD2
:102240007082FF1F034810B5D0F8D4008047BFF359
:102250004F8F10BD7082FF1F034810B5D0F8D80013
:102260008047BFF34F8F10BD7082FF1F034810B52A
:10227000D0F8DC008047BFF34F8F10BD7082FF1F86
:10228000034810B5D0F8E0008047BFF34F8F10BD72
:102290007082FF1F034810B5D0F8E4008047BFF3F9
:1022A0004F8F10BD7082FF1F034810B5D0F8E800B3
:1022B0008047BFF34F8F10BD7082FF1F034810B5DA
:1022C000D0F8EC008047BFF34F8F10BD7082FF1F26
:1022D000034810B5D0F8F0008047BFF34F8F10BD12
:1022E0007082FF1F034810B5D0F8F4008047BFF399
:1022F0004F8F10BD7082FF1F034810B5D0F8F80053
:102300008047BFF34F8F10BD7082FF1F034810B589
:10231000D0F8FC008047BFF34F8F10BD7082FF1FC5
:10232000034810B5D0F800018047BFF34F8F10BDB0
:102330007082FF1F034810B5D0F804018047BFF337
:102340004F8F10BD7082FF1F034810B5D0F80801F1
:102350008047BFF34F8F10BD7082FF1F034810B539
:10236000D0F80C018047BFF34F8F10BD7082FF1F64
:10237000034810B5D0F810018047BFF34F8F10BD50
:102380007082FF1F034810B5D0F814018047BFF3D7
:102390004F8F10BD7082FF1F034810B5D0F8180191
:1023A0008047BFF34F8F10BD7082FF1F034810B5E9
:1023B000D0F81C018047BFF34F8F10BD7082FF1F04
:1023C000034810B5D0F820018047BFF34F8F10BDF0
:1023D0007082FF1F034810B5D0F824018047BFF377
:1023E0004F8F10BD7082FF1F034810B5D0F8280131
:1023F0008047BFF34F8F10BD7082FF1F034810B599
:10240000D0F82C018047BFF34F8F10BD7082FF1FA3
:10241000034810B5D0F830018047BFF34F8F10BD8F
:102420007082FF1F034810B5D0F834018047BFF316
:102430004F8F10BD7082FF1F034810B5D0F83801D0
:102440008047BFF34F8F10BD7082FF1F034810B548
:10245000D0F83C018047BFF34F8F10BD7082FF1F43
:10246000034810B5D0F840018047BFF34F8F10BD2F
:102470007082FF1F034810B5D0F844018047BFF3B6
:102480004F8F10BD7082FF1F034810B5D0F8480170
:102490008047BFF34F8F10BD7082FF1F034810B5F8
:1024A000D0F84C018047BFF34F8F10BD7082FF1FE3
:1024B000034810B5D0F850018047BFF34F8F10BDCF
:1024C0007082FF1F034810B5D0F854018047BFF356
:1024D0004F8F10BD7082FF1F034810B5D0F8580110
:1024E0008047BFF34F8F10BD7082FF1F034810B5A8
:1024F000D0F85C018047BFF34F8F10BD7082FF1F83
:10250000034810B5D0F860018047BFF34F8F10BD6E
:102510007082FF1F034810B5D0F864018047BFF3F5
:102520004F8F10BD7082FF1F034810B5D0F86801AF
:102530008047BFF34F8F10BD7082FF1F034810B557
:10254000D0F86C018047BFF34F8F10BD7082FF1F22
:10255000034810B5D0F870018047BFF34F8F10BD0E
:102560007082FF1F034810B5D0F874018047BFF395
:102570004F8F10BD7082FF1F034810B5D0F878014F
:102580008047BFF34F8F10BD7082FF1F034810B507
:10259000D0F87C018047BFF34F8F10BD7082FF1FC2
:1025A000034810B5D0F880018047BFF34F8F10BDAE
:1025B0007082FF1F034810B5D0F884018047BFF335
:1025C0004F8F10BD7082FF1F034810B5D0F88801EF
:1025D0008047BFF34F8F10BD7082FF1F034810B5B7
:1025E000D0F88C018047BFF34F8F10BD7082FF1F62
:1025F000034810B5D0F890018047BFF34F8F10BD4E
:102600007082FF1F034810B5D0F894018047BFF3D4
:102610004F8F10BD7082FF1F034810B5D0F898018E
:102620008047BFF34F8F10BD7082FF1F034810B566
:10263000D0F89C018047BFF34F8F10BD7082FF1F01
:10264000034810B5D0F8A0018047BFF34F8F10BDED
:102650007082FF1F034810B5D0F8A4018047BFF374
:102660004F8F10BD7082FF1F034810B5D0F8A8012E
:102670008047BFF34F8F10BD7082FF1F034810B516
:10268000D0F8AC018047BFF34F8F10BD7082FF1FA1
:10269000034810B5D0F8B0018047BFF34F8F10BD8D
:1026A0007082FF1F034810B5D0F8B4018047BFF314
:1026B0004F8F10BD7082FF1F034810B5D0F8B801CE
:1026C0008047BFF34F8F10BD7082FF1F034810B5C6
:1026D000D0F8BC018047BFF34F8F10BD7082FF1F41
:1026E000034810B5D0F8C0018047BFF34F8F10BD2D
:1026F0007082FF1F034810B5D0F8C4018047BFF3B4
:102700004F8F10BD7082FF1F034810B5D0F8C8016D
:102710008047BFF34F8F10BD7082FF1F034810B575
:10272000D0F8CC018047BFF34F8F10BD7082FF1FE0
:10273000034810B5D0F8D0018047BFF34F8F10BDCC
:102740007082FF1F034810B5D0F8D4018047BFF353
:102750004F8F10BD7082FF1F034810B5D0F8D8010D
:102760008047BFF34F8F10BD7082FF1F034810B525
:10277000D0F8DC018047BFF34F8F10BD7082FF1F80
:10278000034810B5D0F8E0018047BFF34F8F10BD6C
:102790007082FF1F034810B5D0F8E4018047BFF3F3
:1027A0004F8F10BD7082FF1F034810B5D0F8E801AD
:1027B0008047BFF34F8F10BD7082FF1F034810B5D5
:1027C000D0F8EC018047BFF34F8F10BD7082FF1F20
:1027D000034810B5D0F8F0018047BFF34F8F10BD0C
:1027E0007082FF1F034810B5D0F8F4018047BFF393
:1027F0004F8F10BD7082FF1F034810B5D0F8F8014D
:102800008047BFF34F8F10BD7082FF1F034810B584
:10281000D0F8FC018047BFF34F8F10BD7082FF1FBF
:102820002DE9F04104461D4616460F462A2000F0C9
:102830004FFC204600F042FC304600F03FFC2B20CD
:1028400000F046FC384600F039FC284600F036FC23
:10285000BDE8F0412C2000F03BBC10B514460B46FF
:102860000246FFF7DDFF2046BDE8104000F026BC21
:102870002DE9FF4F81B00546DDF83C9000904FEA0E
:1028800059074FF00008780700D0012000EBD7006F
:1028900000FB09FB203AD0B2039002980299484409
:1028A000401E83B2E819401E82B22846FFF7B8FFE7
:1028B00000245EE0B9F10C0F30D0B9F1100F34D024
:1028C000B9F1180F34D0B9F1200F38D0B9F1280F71
:1028D00051D103982B49C0EB001001EBC00000BFA1
:1028E00010F804A00026109800284FF0010000FA0C
:1028F00006F000EA0A0027D020B12846049A02997F
:10290000FFF7ABFF6D1C0098ADB2281AB8422AD170
:102910000298009D401C80B2029028E003981A495A
:1029200000EB400001EB8000DAE71849039803E070
:102930000398174900EB400001EB0010D0E7154960
:10294000039801EB8010CBE708B1049800E00E98E3
:1029500000F0B4FB08F10100C0B2B0FBF7F1804613
:1029600007FB118050B1761CF6B2082EBBD3641C55
:10297000A4B25C459ED305B0BDE8F08F4FF00008CF
:10298000F5E70000499F0000256B0000996F0000EB
:10299000B9750000898700002DE9FE4F9946DDE9F1
:1029A0000D4516468A460746DDF8308018E00C2CA7
:1029B0001BD0102C24D0182C2DD0202C36D0282C15
:1029C0003FD0302C0FD1CDF800804B4632465146D7
:1029D0003846CDE9014500F09FFA381987B2B61C98
:1029E00030780028E3D1BDE8FE8FCDF800804B465B
:1029F000324651463846CDE9014500F02DF8ECE766
:102A0000CDF800804B46324651463846CDE9014567
:102A100000F09EF8E1E7CDF800804B463246514683
:102A20003846CDE9014500F00DF9D6E7CDF8008034
:102A30004B46324651463846CDE9014500F07EF915
:102A4000CBE7CDF800804B46324651463846CDE9BB
:102A5000014500F0EDF9C0E72DE9FF4F83B00446D2
:102A6000119E00904FF00008700700D0012000EB8D
:102A7000D60000FB06FBFFF748F9029000205AE061
:102A800000EB800101EBC9003049059A11F81030C4
:102A9000127893424CD101EB4000019041780598A7
:102AA0004078814244D1049804993044401E83B256
:102AB000A019401E82B22046FFF7B2FE002735E083
:102AC0000198002500EB070A12989AF802100028D6
:102AD0004FF0010000FA05F001EA000111D021B128
:102AE0002046069A0499FFF7B8FE641C0098A4B229
:102AF000201AB04214D10498009C401C80B204906B
:102B000012E009B1069800E0109800F0D7FA08F139
:102B10000100C0B2B0FBF6F1804606FB118088B11F
:102B20006D1CEDB2082DCFD37F1CFFB25F45C7D31C
:102B300009F1010080B2029981468842A0D307B012
:102B4000BDE8F08F4FF00008EEE70000D1CB0000A9
:102B50002DE9FF4F83B00446119E00904FF000080E
:102B6000700700D0012000EBD60000FB06FBFFF74A
:102B7000CEF80290002058E03148059A09EB09117F
:102B800010F81130127893424CD100EB41000190C3
:102B9000417805984078814244D1049804993044A2
:102BA000401E83B2A019401E82B22046FFF738FEB5
:102BB000002735E00198002500EB070A12989AF8E3
:102BC000021000284FF0010000FA05F001EA0001B0
:102BD00011D021B12046069A0499FFF73EFE641CED
:102BE0000098A4B2201AB04214D10498009C401C52
:102BF00080B2049012E009B1069800E0109800F04D
:102C00005DFA08F10100C0B2B0FBF6F1804606FBA8
:102C1000118088B16D1CEDB2082DCFD37F1CFFB29F
:102C20005F45C7D309F1010080B20299814688420D
:102C3000A2D307B0BDE8F08F4FF00008EEE7000028
:102C40001FCC00002DE9FF4F83B00446119E009079
:102C50004FF00008700700D0012000EBD60000FB09
:102C600006FBFFF756F8029000205AE000EB8001C7
:102C700001EB49103049059A11F81030127893424F
:102C80004CD101EB40000190417805984078814299
:102C900044D1049804993044401E83B2A019401EC8
:102CA00082B22046FFF7BCFD002735E001980025E1
:102CB00000EB070A12989AF8021000284FF0010062
:102CC00000FA05F001EA000111D021B12046069A70
:102CD0000499FFF7C2FD641C0098A4B2201AB04208
:102CE00014D10498009C401C80B2049012E009B1F9
:102CF000069800E0109800F0E1F908F10100C0B278
:102D0000B0FBF6F1804606FB118088B16D1CEDB278
:102D1000082DCFD37F1CFFB25F45C7D309F1010057
:102D200080B2029981468842A0D307B0BDE8F08FF7
:102D30004FF00008EEE7000085CC00002DE9FF4FC2
:102D400083B00446119E00904FF00008700700D039
:102D5000012000EBD60000FB06FBFEF7DCFF029033
:102D6000002058E03148059A09EB891110F811301C
:102D7000127893424CD100EB4100019041780598C4
:102D80004078814244D1049804993044401E83B273
:102D9000A019401E82B22046FFF742FD002735E011
:102DA0000198002500EB070A12989AF802100028F3
:102DB0004FF0010000FA05F001EA000111D021B145
:102DC0002046069A0499FFF748FD641C0098A4B2B7
:102DD000201AB04214D10498009C401C80B2049088
:102DE00012E009B1069800E0109800F067F908F1C8
:102DF0000100C0B2B0FBF6F1804606FB118088B13D
:102E00006D1CEDB2082DCFD37F1CFFB25F45C7D339
:102E100009F1010080B2029981468842A2D307B02D
:102E2000BDE8F08F4FF00008EEE700002BD3000064
:102E30002DE9FF4F81B0154604460F9EFEF76DFF4A
:102E40000146700700D0012000EBD60AA3460020FF
:102E5000304B5CE065224243009213F812202F7839
:102E6000BA4252D12B4B009A6F7803EB4202527850
:102E7000BA424AD1029802993044401E83B2A01946
:102E8000401E82B25846FFF7CBFC002030E00027FE
:102E900029E02048002508FB0A01009807EB4000C4
:102EA000084490F80290109800284FF0010000FAB2
:102EB00005F000EA090021D020B12046049A0299C9
:102EC000FFF7CBFC641CA4B2A4EB0B00B04204D10E
:102ED00002985C46401C80B202906D1CEDB2082D39
:102EE000E1D37F1CBFB25745D3D308F1010080B2B4
:102EF0008046B042CBD305B0BDE8F08F08B104984E
:102F000000E00E9800F0DAF8E7E7401C80B2884253
:102F1000A0D3F0E767E200002DE9FF4F81B015462E
:102F200004460F9FFEF7FBFE0146780700D0012004
:102F300000EBD70AA3460020314A5EE000EB001305
:102F400003EBC013009312F813302E78B34252D122
:102F50002B4A009B6E7802EB43035B78B3424AD165
:102F6000029802993844401E83B2E019401E82B292
:102F70005846FFF755FC002030E0002629E02048A5
:102F8000002508FB0A01009806EB4000084490F871
:102F90000290109800284FF0010000FA05F000EAB6
:102FA000090021D020B12046049A0299FFF755FC70
:102FB000641CA4B2A4EB0B00B84204D102985C4696
:102FC000401C80B202906D1CEDB2082DE1D3761C3E
:102FD000B6B25645D3D308F1010080B28046B8425C
:102FE000CBD305B0BDE8F08F08B1049800E00E988F
:102FF00000F064F8E7E7401C80B288429ED3F0E717
:103000002FF200002DE9FF4F83B00026DDE911B853
:103010001D4682464FEA58073446B1462CE0281B2D
:10302000401EC1B20A2003F0D3F90599B1FBF0F0BC
:103030000A21B0FBF1F201FB120026B9691E8C4295
:1030400001DA58B101263030C2B204FB07A0CDF836
:1030500000B0CDE9018980B2109B08E0CDF800B046
:1030600004FB07A0CDE90189109B80B220220499BE
:10307000FFF7FEFB641CE4B2AC42D0D307B0BDE85E
:10308000F08F2DE9FE4F9946DDE90D6714468A461B
:103090000546DDF830800CE0CDF800804B46514607
:1030A0002846CDE90167FFF7E3FB05EB560085B243
:1030B000641C2278002AEFD1BDE8FE8F10B50446CB
:1030C000000A00F07FFBE0B2BDE8104000F07ABBE0
:1030D00010B5044640210120FEF724FD204600F0F3
:1030E00071FB4021BDE810400120FEF7BDBD00008E
:1030F000C10706D0164940F223120A6043F210229B
:103100000A60810702D5144A12491161410703D5AB
:10311000124A4AF2015111801149C20606D5B1F88E
:10312000FE234AF208531A43A1F8FE23420606D5AD
:10313000B1F8FE334AF203521343A1F8FE330006FE
:1031400005D50849772008600649083108607047AE
:10315000000401400100A5A500800440FC3B05409F
:10316000004005400408054010B50446C00702D0E1
:10317000114900200860A00702D511490F480861D5
:10318000600703D50F494FF425400880E00603D5BA
:103190004AF2085000F0A4F8600603D54AF2035042
:1031A00000F09EF8200605D50749762008600649FC
:1031B0000831086010BD0000000401400000A5A512
:1031C00000800440FC3B05400408054000B585B084
:1031D0006846FEF789FD0120ADF800000220ADF839
:1031E00002000020ADF804002021ADF80800ADF881
:1031F0000C00ADF80610ADF80A00ADF80E00ADF801
:1032000010006A4640210120FEF77CFB6A468021BF
:103210000120FEF777FB6A4620210120FEF772FBB2
:1032200000F016F900F065FF05B0202101205DF8DF
:1032300004EBFEF719BD000070B503464FF6FF70B2
:103240000022074D08E09E5CC4B26640521C35F86F
:10325000164092B284EA10208A42F4D370BD000076
:103260000880FF1F0D4810B5B0F8FE03800704D496
:1032700040F2AD410AA0FEF7C3F91848017801F009
:10328000C00141F00F010170144910200D31087088
:103290001E20FEF7D7F9002010BD000000400540B9
:1032A0002E2E2F2E2E2F2E2E2F2E2E2F2E2E2F2E39
:1032B0002E2F647269766572732F686333325F6C88
:1032C0006C5F6472697665722F7372632F68633303
:1032D000325F6C6C5F7077632E63000002440540C0
:1032E0000449B1F8FE23824342F42540A1F8FE03CD
:1032F00070470000004005402DE9F0411F46904610
:10330000CA19521ED3B200EB0802521ED2B2C9B281
:10331000C0B2069CFDF7BBFB00260EE0002508E0CE
:10332000207800F04FFA6078A41C00F04BFA6D1C76
:10333000ADB2BD42F4D3761CB6B24645EED3BDE87D
:10334000F08102F0EDB9000070B50E46144900EBB3
:10335000400001EBC0051446E86A183520B1012889
:103360000FD0022805D113E0284602F007FAA04248
:1033700001D2002411E022463146284602F036FAF6
:103380000BE0284602F0FAF9A042F4D20446F2E734
:103390003146284602F0FDF90446204670BD000083
:1033A0007084FF1F70B5044616480D4684420DD048
:1033B000154884420AD01548844207D014488442F4
:1033C00004D040F2622113A0FEF71AF935B1012DA5
:1033D00004D040F263210FA0FEF712F960694007A4
:1033E00005D535B14FF419710AA0FEF709F9012D81
:1033F00004D0606820F04000606070BD606840F0FC
:103400004000F9E700C0014000C401400000024054
:10341000000402402E2E5C2E2E5C2E2E5C2E2E5C86
:103420002E2E5C2E2E5C647269766572735C686306
:1034300033325F6C6C5F6472697665725C73726361
:103440005C686333325F6C6C5F7370692E6300007D
:10345000F0B591B00BA8FEF747FC2020ADF8320084
:10346000C60000240225ADF83040ADF82E500BAA5E
:1034700031460120FEF746FA2F020BAA39460120F9
:10348000FEF740FA2B2231460120FEF78BFB282263
:1034900039460120FEF786FB01218804FEF75EF91C
:1034A000684600F0A1F90120CDE90005082002904E
:1034B0000320CDE904406802CDE9064008940A944F
:1034C000074C6946204600F00DF801223946204697
:1034D00000F024F901212046FFF764FF11B0F0BD90
:1034E000000002402DE9F041054679480C466FF096
:1034F000020685420DD0774885420AD0764885423B
:1035000007D07648854204D040F2ED1174A0FEF752
:1035100077F8002C7ED0206830B1012804D04FF419
:10352000F8716FA0FEF76CF8606830B1022804D023
:1035300040F2F1116AA0FEF763F8A06830B10828E4
:1035400004D04FF4F97166A0FEF75AF8E0684FF422
:10355000805730B1B84204D040F2F31160A0FEF7BA
:103560004FF8206950B1B0F5004F07D0B0F5404F8B
:1035700004D04FF4FA715AA0FEF742F8606950B1D6
:10358000012808D0022806D0032804D040F2F51103
:1035900053A0FEF735F8A06990B1042810D0082890
:1035A0000ED00C280CD010280AD0142808D01828C7
:1035B00006D01C2804D04FF4FB7149A0FEF720F878
:1035C000E06940B3B0F5807F31D0B0F5007F2ED0F8
:1035D000B0F5407F2BD0B0F5806F28D0B0F5A06F4C
:1035E00025D0B0F5C06F22D0B0F5E06F1FD0B0F598
:1035F000006F1CD0B0F5106F19D0B0F5206F16D049
:10360000B0F5306F13D0B0F5406F10D0B0F5506FFB
:103610000DD001E052E00AE0B0F5606F07D0B0F5E0
:10362000706F04D040F2F7112DA0FDF7E9FF206A7A
:1036300030B1B84204D04FF4FC7129A0FDF7E0FF8F
:10364000606A30B1802804D040F2F91124A0FDF75F
:10365000D7FFA06A50B1012808D0022806D003285D
:1036600004D04FF4FD711EA0FDF7CAFFA168082920
:1036700002D1E068B84221D02068012804D119B9EC
:103680006269DAB1022A19D062681043626A114392
:103690000843E168084321690843686094F82810EA
:1036A000E86861F30100E860A068082809D0E169D2
:1036B00060690843216A0843A86100263046BDE8D6
:1036C000F081D4E905010843D4E907121143F2E778
:1036D00000C0014000C4014000000240000402405C
:1036E0002E2E5C2E2E5C2E2E5C2E2E5C2E2E5C2E14
:1036F0002E5C647269766572735C686333325F6CEA
:103700006C5F6472697665725C7372635C68633364
:10371000325F6C6C5F7370692E63000070B5044695
:10372000154816460D4684420DD0144884420AD0EE
:103730001348844207D01348844204D040F24E21FB
:1037400011A0FDF75DFF36B1012E04D040F24F21EC
:103750000DA0FDF755FF15B135F4706004D04FF49E
:10376000147109A0FDF74CFF6068012E02D0A84338
:10377000606070BD2843FBE700C0014000C4014009
:1037800000000240000402402E2E5C2E2E5C2E2EE5
:103790005C2E2E5C2E2E5C2E2E5C64726976657219
:1037A000735C686333325F6C6C5F647269766572F8
:1037B0005C7372635C686333325F6C6C5F737069F7
:1037C0002E63000010B5044680210120FEF7AAF9FF
:1037D0002146044800F01CF88021BDE8104001207B
:1037E000FEF742BA000002406FF0020168B100210A
:1037F00008220160C0E90112C1600161C0E905123F
:10380000D201C0E907214162816208467047000089
:1038100070B5044609480D4684420DD008488442DC
:103820000AD00848844207D00748844204D040F2B6
:10383000762106A0FDF7E4FE256070BD00C00140C2
:1038400000C4014000000240000402402E2E5C2E05
:103850002E5C2E2E5C2E2E5C2E2E5C2E2E5C647228
:1038600069766572735C686333325F6C6C5F647237
:10387000697665725C7372635C686333325F6C6C2B
:103880005F7370692E6300002DE9F04117460D4605
:1038900004004FF0000601D0200903D0C7211EA06C
:1038A000FDF7AEFE072D03D9C8211BA0FDF7A8FE2A
:1038B000072F03D9C92118A0FDF7A2FE25480068EB
:1038C000772803D0CA2114A0FDF79AFEDFF884E020
:1038D0000723AEF1040E002C1BD0E00715D0F0003A
:1038E000011D05FA01FC07FA00F24CEA020C03FA8A
:1038F00001F203FA00F10A43DEF800000CEA020CC0
:1039000090434CEA000CCEF800C06408761CF6B276
:10391000E1E7BDE8F08100002E2E2F2E2E2F2E2E57
:103920002F2E2E2F2E2E2F2E2E2F6472697665723B
:10393000732F686333325F6C6C5F64726976657293
:103940002F7372632F686333325F6C6C5F737261C5
:103950006D2E6300040805401CB52F492F48FDF764
:103960007DFC012211460F20FFF78EFF0022114639
:103970000420FFF789FF5020FDF784FE0122110289
:103980000020FEF70FF930220B210020FDF79AFAF4
:1039900001210020FDF74EFA012203210520FDF749
:1039A00055FF6846FDF75CFD00248DF800408DF85A
:1039B000024030208DF8010005208DF80400684693
:1039C000FDF7C8FC6846FDF731FC3121204661F364
:1039D000102000F1805020F0706000F1807020F421
:1039E000700000F5801020F0800001908DF80040FC
:1039F0006846FDF731FB0120FDF7D0F90120FDF706
:103A000077F9FFF72FFC0520FDF72FFCBDE81C40E0
:103A10004FF47A7000F0BABA102211007777770766
:103A20002DE9FF41754D06460C4628680027009099
:103A300068680190A8680290E86811F0E06F039050
:103A400012D0C4F3026001280ED002280CD0032843
:103A50000AD0042808D0052806D0062804D040F251
:103A6000A12167A0FDF7CCFD14F0700F12D0C4F3B4
:103A7000021001280ED002280CD003280AD00428F6
:103A800008D0052806D0062804D040F2A2215CA068
:103A9000FDF7B6FD14F4E02F12D0C4F30240012864
:103AA0000ED002280CD003280AD0042808D00528FC
:103AB00006D0062804D040F2A32151A0FDF7A0FDB6
:103AC00014F4E00F12D0C4F3025001280ED00228E3
:103AD0000CD003280AD0042808D0052806D00628D0
:103AE00004D04FF4297146A0FDF78AFD600712D07B
:103AF00004F0070001280ED002280CD003280AD0B9
:103B0000042808D0052806D0062804D040F2A521B4
:103B10003BA0FDF775FD14F4E06F12D0C4F3022052
:103B200001280ED002280CD003280AD0042808D07F
:103B3000052806D0062804D040F2A62130A0FDF7C3
:103B40005FFD14F4E04F12D0C4F3023001280ED010
:103B500002280CD003280AD0042808D0052806D053
:103B6000062804D040F2A72125A0FDF749FD3348DF
:103B7000064204D14FF42A7121A0FDF741FDDFF880
:103B8000C080B8F8FE03C00704D140F2A9211CA0F0
:103B9000FDF736FD98F8260000F00700052811D142
:103BA00028690127C00704D14FF42C7114A0FDF738
:103BB00027FD24482860C0126860A860E8601E20C5
:103BC000FDF740FDD8F820103440B1432143C8F838
:103BD00020101E20FDF736FD002F0DD00098286024
:103BE000019868600298A8600398E86004B01E20FD
:103BF000BDE8F041FDF726BDBDE8FF81008004402F
:103C00002E2E2F2E2E2F2E2E2F2E2E2F2E2E2F2ECF
:103C10002E2F647269766572732F686333325F6C1E
:103C20006C5F6472697665722F7372632F68633399
:103C3000325F6C6C5F636C6B2E6300007777770785
:103C400000400540EEFAFFFF2DE9FF412B4C050037
:103C50004FF000072068009060680190A068029013
:103C6000E06803900ED0012D0CD0022D0AD0032D58
:103C700008D0042D06D0052D04D040F2372120A015
:103C8000FDF7BEFC2D4EB6F8FE03C00704D14FF47D
:103C90000E711BA0FDF7B4FC96F8260000F007009B
:103CA000052801D0052D11D120690127C00704D1B5
:103CB0004FF4107112A0FDF7A3FC21482060C01240
:103CC0006060A060E0601E20FDF7BCFC86F8265016
:103CD0001E20FDF7B7FC002F0DD000982060019842
:103CE00060600298A0600398E06004B01E20BDE808
:103CF000F041FDF7A7BCBDE8FF8100000080044053
:103D00002E2E2F2E2E2F2E2E2F2E2E2F2E2E2F2ECE
:103D10002E2F647269766572732F686333325F6C1D
:103D20006C5F6472697665722F7372632F68633398
:103D3000325F6C6C5F636C6B2E630000004005406B
:103D4000EEFAFFFF2DE9F04F634A0E4607460FCA11
:103D500087B002AC4FF0FF3984E80F005F4887421C
:103D60000DD05F4887420AD05E48874207D05E4840
:103D7000874204D040F2F3115CA0FDF741FCD6E984
:103D80000045002C6AD0002DFCD0786910F4600743
:103D900010D0B7F5001F0DD0B7F5C00F0AD0B7F59A
:103DA000200F07D0B7F5400F04D040F2F9114FA013
:103DB000FDF726FC780D02A94FF0000B31F81070CA
:103DC00005FB07F04FEA400AB4FBFAF0401EFF285B
:103DD0004BD8B4FBFAF20AFB1241B060E9B3FB190D
:103DE0004BEB0B01401CA3FB002801FB00804BF1B7
:103DF000000C03FB0C03A2FB050C03FB05C302FB39
:103E00000B310902020241EA10615FEA5B03CDE96E
:103E100000214FEA34001018594122460023FCF7D4
:103E20006BFA80387F2820D880228218F060A2FBAD
:103E300004054BF1000303FB04530546DDE90001D3
:103E400002FB0B38FCF7D0FA07460C4628464146E1
:103E5000FCF7CAFA3A46234630E000E038E0C6F8FC
:103E600010B000BF4FF0000932E004EB84004100C5
:103E7000B1FBFAF00A21401DB0FBF1F0401EFF2813
:103E800026D85946FA19B0604BEB0103401CA2FB3F
:103E9000007803FB00804BF1000C02FB0C02A7FB37
:103EA000050302FB053207FB0B21FCF79DFA0746D1
:103EB0000D462046FCF78BFA3A462B46FCF708FBEA
:103EC000FCF775FB4FF07E51FCF7FCFA3061C9E757
:103ED00007B04846BDE8F08F046B000000D00140F9
:103EE00000D4014000100240001402402E2E2F2E5C
:103EF0002E2F2E2E2F2E2E2F2E2E2F2E2E2F647263
:103F000069766572732F686333325F6C6C5F6472BD
:103F1000697665722F7372632F686333325F6C6CDE
:103F20005F75736172742E630000000070B5054602
:103F300000F018F806460A48006800280FD04FF035
:103F4000FF31B1FBF0F44443A54202D2611B814230
:103F500000D2254600F006F8801BA842FAD370BDB7
:103F60002C82FF1F01484068704700002C82FF1F11
:103F700010B500F003F8BFF34F8F10BD0248416841
:103F800002681144416070472C82FF1F4FF0FF31DF
:103F900000B34FF47A7290421CD8B2FBF0F20E4B91
:103FA0001A600E4A126AC2F302630D4A1268DA40BE
:103FB000B2FBF0F0401EB0F1807F0BD24FF0E02159
:103FC0004861084AF02082F8140D0020886107201B
:103FD00008610021084670472C82FF1F0040054001
:103FE0000080FF1F0FE000E030B51C480068C107EB
:103FF0001B4801D01B4900E01B4941601B4991F857
:1040000026204FF4004402F00703194A062B07D27A
:10401000DFE803F003050705070941681BE00260BC
:1040200030BD046030BDD1F80031C3F30825D1F8AC
:1040300000311C0FD1F80031D1F8001103F01F033B
:10404000090600D542685B1CB2FBF3F16D1C6943A5
:10405000641CB1FBF4F1016030BD00008406014036
:104060000080FF1F0024F400002D310100400540B6
:1040700000127A0000B5FFF7B7FF02490020086080
:1040800000BD000008ED00E070B5EF2300211A46E6
:104090000846FCF7FCFC002500240020FFF792FBFB
:1040A0000020FFF78FFB641CE4B2F02CF5D36D1CED
:1040B000EDB2F02DF0D370BD2DE9F0410746EF23AE
:1040C00000211A460846FCF7E2FC0025C7F3072644
:1040D00000243046FFF776FBF8B2FFF773FB641C51
:1040E000E4B2F02CF5D36D1CEDB2F02DF0D3BDE8A9
:1040F000F08110B580210120FDF714FD6420FFF749
:1041000015FFEF2000F02FFAEB2000F02CFA14201E
:10411000FFF758FBFE2000F026FAEF2000F023FA0C
:10412000EB2000F020FA1420FFF74CFB842000F075
:104130001AFA4020FFF746FB852000F014FAFF2012
:10414000FFF740FB862000F00EFAFF20FFF73AFB56
:10415000872000F008FAFF20FFF734FB882000F0EA
:1041600002FA0A20FFF72EFB892000F0FCF921203B
:10417000FFF728FB8A2000F0F6F90020FFF722FB6A
:104180008B2000F0F0F98020FFF71CFB8C2000F062
:10419000EAF90120FFF716FB8D2000F0E4F9012079
:1041A000FFF710FB8E2000F0DEF9FF20FFF70AFB7F
:1041B0008F2000F0D8F9FF20FFF704FBB62000F0B5
:1041C000D2F90020FFF7FEFA2020FFF7FBFA362095
:1041D00000F0C9F9C820FFF7F5FA3A2000F0C3F95A
:1041E0000520FFF7EFFA902000F0BDF90820FFF757
:1041F000E9FA0820FFF7E6FA0820FFF7E3FA0820BB
:10420000FFF7E0FABD2000F0AEF90620FFF7DAFA7A
:10421000BC2000F0A8F90020FFF7D4FAFF2000F03E
:10422000A2F96020FFF7CEFA0120FFF7CBFA0420B5
:10423000FFF7C8FAC32000F096F91320FFF7C2FA7F
:10424000C42000F090F91320FFF7BCFAC92000F059
:104250008AF92220FFF7B6FABE2000F084F9112077
:10426000FFF7B0FAE12000F07EF91020FFF7AAFA7C
:104270000E20FFF7A7FADF2000F075F92120FFF7E5
:10428000A1FA0C20FFF79EFA0220FFF79BFAF0201C
:1042900000F069F94520FFF795FA0920FFF792FA37
:1042A0000820FFF78FFA0820FFF78CFA2620FFF787
:1042B00089FA2A20FFF786FAF12000F054F943200A
:1042C000FFF780FA7020FFF77DFA7220FFF77AFA85
:1042D0003620FFF777FA3720FFF774FA6F20FFF7E1
:1042E00071FAF22000F03FF94520FFF76BFA092040
:1042F000FFF768FA0820FFF765FA0820FFF762FA6F
:104300002620FFF75FFA2A20FFF75CFAF32000F07F
:104310002AF94320FFF756FA7020FFF753FA72206C
:10432000FFF750FA3620FFF74DFA3720FFF74AFA29
:104330006F20FFF747FAED2000F015F91B20FFF77B
:1043400041FA0B20FFF73EFAAE2000F00CF977207F
:10435000FFF738FACD2000F006F96320FFF732FAB4
:10436000702000F000F90720FFF72CFA0720FFF774
:1043700029FA0420FFF726FA0E20FFF723FA0F2070
:10438000FFF720FA0920FFF71DFA0720FFF71AFAB6
:104390000820FFF717FA0320FFF714FAE82000F0CF
:1043A000E2F83420FFF70EFA622000F0DCF8182063
:1043B000FFF708FA0D20FFF705FA7120FFF702FA60
:1043C000ED20FFF7FFF97020FFF7FCF97020FFF7F1
:1043D000F9F91820FFF7F6F90F20FFF7F3F971202C
:1043E000FFF7F0F9EF20FFF7EDF97020FFF7EAF99A
:1043F0007020FFF7E7F9632000F0B5F81820FFF709
:10440000E1F91120FFF7DEF97120FFF7DBF9F12068
:10441000FFF7D8F97020FFF7D5F97020FFF7D2F930
:104420001820FFF7CFF91320FFF7CCF97120FFF721
:10443000C9F9F320FFF7C6F97020FFF7C3F9702020
:10444000FFF7C0F9642000F08EF82820FFF7BAF9D2
:104450002920FFF7B7F9F120FFF7B4F90120FFF7A2
:10446000B1F9F120FFF7AEF90020FFF7ABF9072013
:10447000FFF7A8F9662000F076F83C20FFF7A2F9D4
:104480000020FFF79FF9CD20FFF79CF96720FFF789
:1044900099F94520FFF796F94520FFF793F9102089
:1044A000FFF790F90020FFF78DF90020FFF78AF958
:1044B0000020FFF787F9672000F055F80020FFF78C
:1044C00081F93C20FFF77EF90020FFF77BF90020FF
:1044D000FFF778F90020FFF775F90120FFF772F96F
:1044E0005420FFF76FF91020FFF76CF93220FFF727
:1044F00069F99820FFF766F9742000F034F810206D
:10450000FFF760F98520FFF75DF98020FFF75AF982
:104510000020FFF757F90020FFF754F94E20FFF76E
:1045200051F90020FFF74EF9982000F01CF83E20CA
:10453000FFF748F90720FFF745F9342000F013F89A
:10454000212000F010F8FFF79FFD112000F00BF87C
:104550007820FFF7EBFC292000F005F8BDE81040BB
:104560001420FFF7E3BC10B5044640210120FDF7FD
:10457000D9FA2046FFF726F94021BDE81040012076
:10458000FDF772BB70B504460C480D46844207D057
:104590000B48844204D040F261210AA0FDF730F8B4
:1045A00015B135F0011004D040F2622105A0FDF7ED
:1045B00027F84FF00110A843606170BD0040024031
:1045C000004402402E2E5C2E2E5C2E2E5C2E2E5C85
:1045D0002E2E5C2E2E5C647269766572735C686345
:1045E00033325F6C6C5F6472697665725C737263A0
:1045F0005C686333325F6C6C5F746D72302E630085
:1046000010B54FF480310548FFF7BCFF044801683E
:10461000491C0160BDE8104001F0C8BD00400240E7
:104620003C82FF1F10B5012186B00846FDF7D2F885
:10463000684600F06FF90020A021CDE9000102904A
:104640006120294CADF80C006A460121204600F09B
:104650004FF80120FCF7D6FF01229104204600F01C
:10466000D1F80120FCF7CEFF4120ADF81000062064
:10467000ADF812001D48059004A8FDF787FBBDF9B1
:1046800012000122002809DB00F01F0102FA01F1EB
:104690004009800000F1E020C0F88012BDF912103E
:1046A000F023002904DB01F1E02181F8003405E06A
:1046B00001F00F0000F1E02080F8143DBDF9120078
:1046C000002808DB00F01F018A404009800000F14B
:1046D000E020C0F800210121204600F0DDF8012093
:1046E000FCF790FF06B010BD0040024001460000FC
:1046F0002DE9F04114000E4605464FF000075CD04E
:104700002F48854206D02F48854203D0C3212EA0D2
:10471000FCF776FF2EB1012E03D0C4212AA0FCF7AE
:104720006FFF206860B1B0F5007F09D0B0F5807FE1
:1047300006D0B0F5A06F03D0C52123A0FCF760FF21
:104740006068B8B1102815D0202813D0302811D0B7
:1047500040280FD050280DD060280BD0702809D0E9
:10476000802807D0902805D0A02803D0C62116A005
:10477000FCF746FFA06838B1A0F50041023903D02C
:10478000C72111A0FCF73CFF05EB8600002101606A
:10479000A18981602B69310148F2F27000FA01F2BF
:1047A0009343D4E90026A4683243224302408A405E
:1047B00013432B613846BDE8F0816FF00207F9E73B
:1047C00000400240004402402E2E5C2E2E5C2E2E15
:1047D0005C2E2E5C2E2E5C2E2E5C647269766572C9
:1047E000735C686333325F6C6C5F647269766572A8
:1047F0005C7372635C686333325F6C6C5F746D72A0
:10480000302E630070B50446124816460D468442A9
:1048100007D01148844204D04FF40C710FA0FCF76C
:10482000EFFE15B135F0041004D040F231210BA099
:10483000FCF7E6FE36B1012E07D040F2322107A088
:10484000FCF7DEFE2069A84301E0206928432061CF
:1048500070BD000000400240004402402E2E5C2E3D
:104860002E5C2E2E5C2E2E5C2E2E5C2E2E5C647208
:1048700069766572735C686333325F6C6C5F647217
:10488000697665725C7372635C686333325F6C6C0B
:104890005F746D72302E630070B504460C480D468F
:1048A000844206D00B48844203D0F8210AA0FCF7CA
:1048B000A7FE2DB1012D03D0F92107A0FCF7A0FE22
:1048C00020692A01012191400843206170BD000048
:1048D00000400240004402402E2E5C2E2E5C2E2E04
:1048E0005C2E2E5C2E2E5C2E2E5C647269766572B8
:1048F000735C686333325F6C6C5F64726976657297
:104900005C7372635C686333325F6C6C5F746D728E
:10491000302E6300002140B10022026042608260BC
:104920004FF6FF728281084670476FF00201FAE786
:1049300070B505463E480C466FF00206854213D01E
:104940003C48854210D03C4885420DD03B488542CA
:104950000AD03B48854207D03A48854204D04FF4FC
:104960008B7139A0FCF74CFE002C29D02078002850
:1049700028D0012807D04FF48C7133A0FCF740FEFB
:10498000207800281ED0A08830B1400B04D040F21F
:1049900023112DA0FCF734FEE08830B1400B04D089
:1049A00040F2251128A0FCF72BFEA088A5F888006E
:1049B000E088A5F88C002846A16800F063F900267D
:1049C000304670BDA07830B1042804D040F21B11ED
:1049D0001DA0FCF715FEE07830B1022804D04FF49A
:1049E0008E7119A0FCF70CFE6178C1B1102916D0A8
:1049F000202914D0302912D0402910D050290ED0AF
:104A000060290CD070290AD0802908D0902906D0BE
:104A1000A02904D040F21D110BA0FCF7F1FDA078F5
:104A2000E17808436178084385F88000C3E7000017
:104A3000005001400054014000580140005C01401A
:104A400000600140006401402E2E5C2E2E5C2E2E54
:104A50005C2E2E5C2E2E5C2E2E5C64726976657246
:104A6000735C686333325F6C6C5F64726976657225
:104A70005C7372635C686333325F6C6C5F746D721D
:104A8000612E63002DE9F0410546354814460E4677
:104A90006FF0020785420ED0324885420BD0324873
:104AA000854208D03148854205D03148854202D040
:104AB0003048854201D1072E04D94FF4ED712EA064
:104AC000FCF79EFD002C47D0A08840B1012806D0FD
:104AD000022804D040F2DD1127A0FCF791FDE08808
:104AE00040B1012806D0022804D04FF4EF7122A073
:104AF000FCF786FD208950B1012808D0022806D095
:104B0000032804D040F2DF111BA0FCF779FD608977
:104B100050B1012808D0022806D0032804D04FF451
:104B2000F07115A0FCF76CFD402105EB8600228892
:104B30000A522179A279A37A41EA8201227A1201EA
:104B400042EA83121143B0F84021C9B202F47F4215
:104B50001143A0F8401100273846BDE8F08100005D
:104B6000005001400054014000580140005C0140E9
:104B700000600140006401402E2E5C2E2E5C2E2E23
:104B80005C2E2E5C2E2E5C2E2E5C64726976657215
:104B9000735C686333325F6C6C5F647269766572F4
:104BA0005C7372635C686333325F6C6C5F746D72EC
:104BB000612E630070B50446154815460E468442C2
:104BC0000ED0144884420BD01348844208D01348B6
:104BD000844205D01248844202D01248844201D156
:104BE000072E04D94FF406710FA0FCF709FD35B16B
:104BF000012D04D040F219210BA0FCF701FD04EBBC
:104C0000860000F5A070400100F18440056370BD8E
:104C1000005001400054014000580140005C014038
:104C200000600140006401402E2E5C2E2E5C2E2E72
:104C30005C2E2E5C2E2E5C2E2E5C64726976657264
:104C4000735C686333325F6C6C5F64726976657243
:104C50005C7372635C686333325F6C6C5F746D723B
:104C6000612E63006FF0020148B1090C016001215F
:104C700081800021C18003210181418100210846FA
:104C80007047000070B504460C480D46844213D0AE
:104C90000B48844210D00B4884420DD00A4884420D
:104CA0000AD00A48844207D00948844204D04FF40D
:104CB000517108A0FCF7A4FCA58070BD0050014014
:104CC0000054014000580140005C01400060014078
:104CD000006401402E2E5C2E2E5C2E2E5C2E2E5C4F
:104CE0002E2E5C2E2E5C647269766572735C68632E
:104CF00033325F6C6C5F6472697665725C73726389
:104D00005C686333325F6C6C5F746D72612E63003C
:104D100010B504460E48844213D00E48844210D089
:104D20000D4884420DD00D4884420AD00C4884427C
:104D300007D00C48844204D040F256410AA0FCF748
:104D40005FFC14F8800F40F00100207010BD0000DF
:104D5000005001400054014000580140005C0140F7
:104D600000600140006401402E2E5C2E2E5C2E2E31
:104D70005C2E2E5C2E2E5C2E2E5C64726976657223
:104D8000735C686333325F6C6C5F64726976657202
:104D90005C7372635C686333325F6C6C5F746D72FA
:104DA000612E630010B504460E48844213D00E48AD
:104DB000844210D00D4884420DD00D4884420AD060
:104DC0000C48844207D00C48844204D040F263412E
:104DD0000AA0FCF715FC14F8800F00F0FE0020700C
:104DE00010BD000000500140005401400058014037
:104DF000005C014000600140006401402E2E5C2EEA
:104E00002E5C2E2E5C2E2E5C2E2E5C2E2E5C647262
:104E100069766572735C686333325F6C6C5F647271
:104E2000697665725C7372635C686333325F6C6C65
:104E30005F746D72612E63006FF0020158B1002142
:104E40000170417081700222C2708180C1804FF672
:104E5000FF71816000210846704700002DE9F04194
:104E600086B001218020FCF7B5FC6846FFF7E4FF1F
:104E700010248DF801400025DFF8A4808DF8025041
:104E8000022646F2A7178DF803606946404602974E
:104E9000FFF74EFD03A8FFF7E5FE40F6C3100390B1
:104EA000052220210120FCF77DFE03AA06214046B1
:104EB000FFF7E8FD012206214046FFF77BFE0121B6
:104EC0004020FCF787FC6846FFF7B6FF8DF80140ED
:104ED000144C8DF802508DF8036069462046029705
:104EE000FFF726FD03A8FFF7BDFE7810039005220B
:104EF00021150120FCF756FE03AA07212046FFF7E3
:104F0000C1FD012207212046FFF754FE4046FFF76E
:104F1000FFFE2046FFF746FF06B0BDE8F081000027
:104F200000640140006001402DE9FC5F05465A48DD
:104F30000E464FF0FF3985420DD0584885420AD0C1
:104F40005748854207D05748854204D04FF4A7718F
:104F500055A0FCF755FBD6E90047002C49D0002F9F
:104F600047D0E868C0F3C032C2F102007843C00005
:104F70008246B4FBFAF1491EFF293AD8B4FBF0F39C
:104F80000AFB13430020B1607BB302250023D2EB60
:104F9000050563EB0003DA00EB0042EA5572491C99
:104FA000A3FB0158CDE9003202FB018140F1000C66
:104FB00003FB0C12A5FB071302FB073205FB0022C3
:104FC00015020A0245EA1165834641084FEA34009A
:104FD0008018904669410022D0F1FF338A4109D2FE
:104FE00022460023FBF788F906E0FFE74FF00009AF
:104FF00030614DE0B0FBF4F080387F2818D82946A6
:1050000080254719F060A7FB040C4BF1000505FB58
:1050100004C4424607FB0B4807461046FBF7E4F979
:1050200004460D4638464146FBF7DEF9224625E0A8
:1050300004EB84004100B1FBFAF00A21401DB0FBF3
:10504000F1F0401EFF2823D8B060DDE90032401C9B
:10505000A3FB005802FB00804BF1000C03FB0C0289
:10506000A5FB070302FB073205FB0B21FBF7BCF98D
:1050700007460D462046FBF7AAF93A462B46FBF7B2
:1050800027FAFBF794FA4FF07E51FBF71BFAADE7D6
:105090004846BDE8FC9F000000D0014000D401401C
:1050A00000100240001402402E2E2F2E2E2F2E2EE6
:1050B0002F2E2E2F2E2E2F2E2E2F64726976657294
:1050C000732F686333325F6C6C5F647269766572EC
:1050D0002F7372632F686333325F6C6C5F7573611B
:1050E00072742E630000000070B5044614480D462B
:1050F00084420CD01348844209D01348844206D01D
:105100001248844203D0011511A0FCF779FA15B1B9
:105110001F48054204D040F201410DA0FCF770FA8F
:1051200015F00B0F05D0E06805F00B0140EA0140D7
:10513000E060E80503D5E06840F48010E06070BDF1
:1051400000D0014000D40140001002400014024091
:105150002E2E2F2E2E2F2E2E2F2E2E2F2E2E2F2E6A
:105160002E2F647269766572732F686333325F6CB9
:105170006C5F6472697665722F7372632F68633334
:10518000325F6C6C5F75736172742E630000000097
:1051900014FEFEFF70B50446174815460E468442BD
:1051A0000DD0164884420AD01548844207D01548CD
:1051B000844204D040F2BB3113A0FCF721FA35B190
:1051C000012D04D04FF46F710FA0FCF719FA16B13E
:1051D00036F0EF0004D040F2BD310BA0FCF710FA1E
:1051E0003004000C04D0E168012D02D08143E1605D
:1051F00070BD0143FBE7000000D0014000D4014036
:1052000000100240001402402E2E2F2E2E2F2E2E84
:105210002F2E2E2F2E2E2F2E2E2F64726976657232
:10522000732F686333325F6C6C5F6472697665728A
:105230002F7372632F686333325F6C6C5F757361B9
:1052400072742E630000000010B5044609488442C1
:105250000DD0094884420AD00848844207D0084843
:10526000844204D040F2725106A0FCF7C9F9E088EC
:1052700010BD000000D0014000D4014000100240E9
:10528000001402402E2E2F2E2E2F2E2E2F2E2E2F9C
:105290002E2E2F2E2E2F647269766572732F6863FF
:1052A00033325F6C6C5F6472697665722F73726300
:1052B0002F686333325F6C6C5F75736172742E6339
:1052C0000000000010B5054C2046FFF7BDFF20464A
:1052D000BDE810400B21FFF707BF000000D00140E0
:1052E00010B50448FFF7B0FFBDE81040C0B200F0B1
:1052F000BDBF000000D001402DE9F04786B0154643
:105300000E00044604D140F2A95137A0FCF778F909
:10531000454FDFF81881DFF81891DFF818A1BC427B
:105320000AD0444508D04C4506D0544504D040F23C
:10533000AA512DA0FCF764F9E06810F00C0F04D01E
:1053400040F2AB5128A0FCF75BF9BC420AD04445BF
:1053500008D04C4506D0544504D040F2492136A02F
:10536000FCF74EF94448006AC0F302114348006854
:10537000C840A16989074A0F01219140B0FBF1F0B3
:10538000CDE9000600200490FF200390E06810F0B3
:10539000807F05D069462046FCF772F858B11CE0C2
:1053A000606969468006204602D4FFF7BDFDF5E737
:1053B000FEF7C8FCF2E7DDE9022141EA02214FF6DF
:1053C0007F72A368114093431943A1600399FF2999
:1053D00003D0E16841F00051E160002D01D0049953
:1053E000296006B0BDE8F0872E2E2F2E2E2F2E2EF0
:1053F0002F2E2E2F2E2E2F2E2E2F64726976657251
:10540000732F686333325F6C6C5F647269766572A8
:105410002F7372632F686333325F6C6C5F757361D7
:1054200072742E630000000000D0014000D40140DF
:1054300000100240001402402E2E2F2E2E2F2E2E52
:105440002F2E2E2F2E2E2F2E2E2F64726976657200
:10545000732F686333325F6C6C5F64726976657258
:105460002F7372632F686333325F6C6C5F75736187
:1054700072742E6300000000004005400080FF1F92
:105480000349002008700246C8210248FFF782BE87
:105490004482FF1F00D0014009494A888B8809488F
:1054A0009A4207D24A88084B1344521C4A80197802
:1054B00000F0F0B800220A7001224021FFF76ABE16
:1054C0004482FF1F00D00140A887FF1F2DE9F04153
:1054D000054617460C006FF002007DD04E4885420D
:1054E0000DD04E4885420AD04D48854207D04D48E0
:1054F000854204D040F22D314BA0FCF781F82068A2
:105500004FF48056B04205D020B140F22E3146A073
:10551000FCF776F8A068B0F5006F05D020B140F236
:105520002F3141A0FCF76CF8A069B0F5C06F08D02E
:10553000B0F5806F05D020B14FF44C713AA0FCF764
:105540005FF8206930B1B04204D040F2313136A06A
:10555000FCF756F8606938B1B0F5005F04D040F24E
:10556000323131A0FCF74CF8E069B0F5004F05D0BE
:1055700020B140F233312CA0FCF742F8206AB0F1A0
:10558000805F05D020B14FF44D7127A0FCF738F8AB
:10559000606A38B1B0F1004F04D040F2353122A03A
:1055A000FCF72EF8A06A4FF40076B04207D0B0F5B1
:1055B000807F04D040F236311BA0FCF721F821692E
:1055C000A0690843D4E9072111430843616AA2682E
:1055D00008432168114300E00BE062691143A26AAD
:1055E000B24200D00026E86029616E61206810B1E7
:1055F0000020BDE8F0816068032804D94FF45171A0
:1056000009A0FBF7FDFF6068A8613A462846E168FB
:10561000BDE8F041FFF770BE00D0014000D401406A
:1056200000100240001402402E2E2F2E2E2F2E2E60
:105630002F2E2E2F2E2E2F2E2E2F6472697665720E
:10564000732F686333325F6C6C5F64726976657266
:105650002F7372632F686333325F6C6C5F75736195
:1056600072742E63000000006FF0020180B100210F
:1056700001604FF416524160C0E9021201614161BC
:105680008161C161016211064162C90D816200211F
:105690000846704770B504460D480D4684420DD04B
:1056A0000C4884420AD00C48844207D00B488442FC
:1056B00004D040F281510AA0FBF7A2FFB5F5007FAC
:1056C00004D340F2825106A0FBF79AFFA58070BD7B
:1056D00000D0014000D401400010024000140240FC
:1056E0002E2E2F2E2E2F2E2E2F2E2E2F2E2E2F2ED5
:1056F0002E2F647269766572732F686333325F6C24
:105700006C5F6472697665722F7372632F6863339E
:10571000325F6C6C5F75736172742E630000000001
:10572000114803210161416110A1816100F1A801CB
:10573000C1614FF480710162002181624162C162E6
:105740000AA2026600F5D4724266102282660167E0
:10575000C1664167084A00BFC1F10F03D35C4354DF
:10576000491C1029F8D370477084FF1F5465726D6F
:10577000696E616C00000000146B00000269C16872
:105780008A4203D88068401A104400E0501A401E34
:1057900070472DE9F047C4681746894606464FF022
:1057A00000083069A04201D9051B02E0B168201A47
:1057B0000D1AB0686D1E001BA84200D80546BD42F8
:1057C00000D33D4670682A4620444946FAF7C5FD95
:1057D000B0687F1B2C44A844A944A04200D10024F7
:1057E000F460002FDDD14046BDE8F0872DE9F0419F
:1057F00004468846D4E90207C51BE168606816467E
:105800000844B54206D94146FAF7A7FDB819E06049
:10581000BDE8F0812A464146FAF79FFD761B08EB6A
:10582000050132466068FAF798FDE660F0E700008F
:105830000FB41CB50246002007AC00290BD0491E4E
:10584000CDE90021054B6A462146069800F0F0F8A4
:10585000009A002111701CBC5DF814FB5F61000010
:105860007CB5044600201D46164600290BD0491E73
:10587000CDE90041044B6A462946304600F0D8F88D
:10588000009A002111707CBD5F61000002E008C831
:10589000121F08C1002AFAD170477047002001E0AA
:1058A00001C1121F002AFBD1704700002DE9FF5FE4
:1058B00082B00021DDE90430020DDDF840B0034381
:1058C00018D044F61050A2F2FF324243151411983A
:1058D00001281FD0A5EB0B00401C5FEA000A4FF027
:1058E00000064E4FDFF83891B046504615D5CAF144
:1058F000000413E0119801244AA3012801D16FEAA2
:105900000B010298119AC0E90031C0E9024206B0C9
:10591000BDE8F09FCBF10000DFE704460021404ADC
:10592000491842EB0450CDE9001012E0E00707D01F
:1059300032463B4640464946FAF7C5FF804689460F
:1059400032463B4610461946FAF7BDFF06460F465B
:105950006410002CEAD1DDE90401DDE90023BAF18D
:10596000000F06DAFAF7AFFF42464B46FAF7ABFFF5
:1059700005E0FAF7ADFD42464B46FAF7A9FD0446AD
:105980000E460022284BFBF729F803D84FF0FF30D2
:10599000014607E00022254B20463146FAF7ECFE8F
:1059A000FBF703F8102409E0002C0ADB0A2200238D
:1059B000FAF7A2FC039B30321A55641E50EA01022A
:1059C000F2D1641C039AC4F111031444119A012A00
:1059D00003D0012208430DD10AE0084304D000207F
:1059E0004FF0110B119072E7A3EB0B056D1E0DE04C
:1059F0005B4504DD4FF0000205F1010504E003DA28
:105A00004FF00002A5F10105002AECD0029811998F
:105A1000C0E90231C0E9004579E700000000144008
:105A20000000F03F300000000000F0430000E03FC5
:105A30002DE9FF4F95B09B468946064600250FE2AB
:105A4000252877D100242746F84A0121059400E053
:105A5000044316F8013F203B01FA03F01042F7D14E
:105A600030782A2811D06FF02F033078A0F130025F
:105A7000092A16D8059A44F0020402EB820203EBCD
:105A800042021044761C0590EFE759F8042B05926A
:105A9000002A03DA504244F40054059044F0020412
:105AA000761C30782E2816D116F8010F44F0040425
:105AB0002A280DD06FF02F023078A0F13003092B87
:105AC00009D807EB870302EB4303C718761CF3E7FB
:105AD00059F8047B761C30786C280FD006DC4C28F3
